{
  "contractName": "IsonexTest",
  "abi": [
    {
      "constant": true,
      "inputs": [],
      "name": "name",
      "outputs": [
        {
          "name": "",
          "type": "string"
        }
      ],
      "payable": false,
      "stateMutability": "view",
      "type": "function"
    },
    {
      "constant": false,
      "inputs": [
        {
          "name": "_spender",
          "type": "address"
        },
        {
          "name": "_value",
          "type": "uint256"
        }
      ],
      "name": "approve",
      "outputs": [
        {
          "name": "success",
          "type": "bool"
        }
      ],
      "payable": false,
      "stateMutability": "nonpayable",
      "type": "function"
    },
    {
      "constant": true,
      "inputs": [],
      "name": "etherWallet",
      "outputs": [
        {
          "name": "",
          "type": "address"
        }
      ],
      "payable": false,
      "stateMutability": "view",
      "type": "function"
    },
    {
      "constant": true,
      "inputs": [],
      "name": "totalSupply",
      "outputs": [
        {
          "name": "",
          "type": "uint256"
        }
      ],
      "payable": false,
      "stateMutability": "view",
      "type": "function"
    },
    {
      "constant": true,
      "inputs": [],
      "name": "decimals",
      "outputs": [
        {
          "name": "",
          "type": "uint8"
        }
      ],
      "payable": false,
      "stateMutability": "view",
      "type": "function"
    },
    {
      "constant": true,
      "inputs": [],
      "name": "vestingContract",
      "outputs": [
        {
          "name": "",
          "type": "address"
        }
      ],
      "payable": false,
      "stateMutability": "view",
      "type": "function"
    },
    {
      "constant": true,
      "inputs": [],
      "name": "priceUpdateInterval",
      "outputs": [
        {
          "name": "",
          "type": "uint256"
        }
      ],
      "payable": false,
      "stateMutability": "view",
      "type": "function"
    },
    {
      "constant": true,
      "inputs": [],
      "name": "minDepositAmount",
      "outputs": [
        {
          "name": "",
          "type": "uint256"
        }
      ],
      "payable": false,
      "stateMutability": "view",
      "type": "function"
    },
    {
      "constant": true,
      "inputs": [
        {
          "name": "participant",
          "type": "address"
        }
      ],
      "name": "balanceOf",
      "outputs": [
        {
          "name": "balance",
          "type": "uint256"
        }
      ],
      "payable": false,
      "stateMutability": "view",
      "type": "function"
    },
    {
      "constant": true,
      "inputs": [],
      "name": "controlWallet",
      "outputs": [
        {
          "name": "",
          "type": "address"
        }
      ],
      "payable": false,
      "stateMutability": "view",
      "type": "function"
    },
    {
      "constant": true,
      "inputs": [],
      "name": "fundingEndBlock",
      "outputs": [
        {
          "name": "",
          "type": "uint256"
        }
      ],
      "payable": false,
      "stateMutability": "view",
      "type": "function"
    },
    {
      "constant": false,
      "inputs": [
        {
          "name": "_spender",
          "type": "address"
        },
        {
          "name": "_oldValue",
          "type": "uint256"
        },
        {
          "name": "_newValue",
          "type": "uint256"
        }
      ],
      "name": "changeApproval",
      "outputs": [
        {
          "name": "success",
          "type": "bool"
        }
      ],
      "payable": false,
      "stateMutability": "nonpayable",
      "type": "function"
    },
    {
      "constant": true,
      "inputs": [],
      "name": "currentPriceTimeWindow",
      "outputs": [
        {
          "name": "",
          "type": "uint256"
        }
      ],
      "payable": false,
      "stateMutability": "view",
      "type": "function"
    },
    {
      "constant": true,
      "inputs": [],
      "name": "symbol",
      "outputs": [
        {
          "name": "",
          "type": "string"
        }
      ],
      "payable": false,
      "stateMutability": "view",
      "type": "function"
    },
    {
      "constant": true,
      "inputs": [
        {
          "name": "",
          "type": "address"
        }
      ],
      "name": "whitelist",
      "outputs": [
        {
          "name": "",
          "type": "bool"
        }
      ],
      "payable": false,
      "stateMutability": "view",
      "type": "function"
    },
    {
      "constant": true,
      "inputs": [],
      "name": "currentPrice",
      "outputs": [
        {
          "name": "numerator",
          "type": "uint256"
        },
        {
          "name": "denominator",
          "type": "uint256"
        }
      ],
      "payable": false,
      "stateMutability": "view",
      "type": "function"
    },
    {
      "constant": true,
      "inputs": [
        {
          "name": "",
          "type": "uint256"
        }
      ],
      "name": "priceHistory",
      "outputs": [
        {
          "name": "numerator",
          "type": "uint256"
        },
        {
          "name": "denominator",
          "type": "uint256"
        }
      ],
      "payable": false,
      "stateMutability": "view",
      "type": "function"
    },
    {
      "constant": true,
      "inputs": [],
      "name": "halted",
      "outputs": [
        {
          "name": "",
          "type": "bool"
        }
      ],
      "payable": false,
      "stateMutability": "view",
      "type": "function"
    },
    {
      "constant": true,
      "inputs": [],
      "name": "fundingStartBlock",
      "outputs": [
        {
          "name": "",
          "type": "uint256"
        }
      ],
      "payable": false,
      "stateMutability": "view",
      "type": "function"
    },
    {
      "constant": true,
      "inputs": [],
      "name": "tokenCap",
      "outputs": [
        {
          "name": "",
          "type": "uint256"
        }
      ],
      "payable": false,
      "stateMutability": "view",
      "type": "function"
    },
    {
      "constant": true,
      "inputs": [
        {
          "name": "_owner",
          "type": "address"
        },
        {
          "name": "_spender",
          "type": "address"
        }
      ],
      "name": "allowance",
      "outputs": [
        {
          "name": "remaining",
          "type": "uint256"
        }
      ],
      "payable": false,
      "stateMutability": "view",
      "type": "function"
    },
    {
      "constant": true,
      "inputs": [],
      "name": "tradeable",
      "outputs": [
        {
          "name": "",
          "type": "bool"
        }
      ],
      "payable": false,
      "stateMutability": "view",
      "type": "function"
    },
    {
      "inputs": [
        {
          "name": "controlWalletInput",
          "type": "address"
        },
        {
          "name": "priceNumeratorInput",
          "type": "uint256"
        }
      ],
      "payable": false,
      "stateMutability": "nonpayable",
      "type": "constructor"
    },
    {
      "payable": true,
      "stateMutability": "payable",
      "type": "fallback"
    },
    {
      "anonymous": false,
      "inputs": [
        {
          "indexed": false,
          "name": "numerator",
          "type": "uint256"
        },
        {
          "indexed": false,
          "name": "denominator",
          "type": "uint256"
        }
      ],
      "name": "PriceUpdate",
      "type": "event"
    },
    {
      "anonymous": false,
      "inputs": [
        {
          "indexed": true,
          "name": "participant",
          "type": "address"
        },
        {
          "indexed": false,
          "name": "numberOfTokens",
          "type": "uint256"
        }
      ],
      "name": "AllocatePresale",
      "type": "event"
    },
    {
      "anonymous": false,
      "inputs": [
        {
          "indexed": true,
          "name": "participant",
          "type": "address"
        }
      ],
      "name": "Whitelisted",
      "type": "event"
    },
    {
      "anonymous": false,
      "inputs": [
        {
          "indexed": true,
          "name": "participant",
          "type": "address"
        },
        {
          "indexed": false,
          "name": "numberOfTokens",
          "type": "uint256"
        }
      ],
      "name": "WithdrawalRequested",
      "type": "event"
    },
    {
      "anonymous": false,
      "inputs": [
        {
          "indexed": true,
          "name": "participant",
          "type": "address"
        },
        {
          "indexed": false,
          "name": "etherAmount",
          "type": "uint256"
        },
        {
          "indexed": false,
          "name": "numberOfTokens",
          "type": "uint256"
        }
      ],
      "name": "Withdrew",
      "type": "event"
    },
    {
      "anonymous": false,
      "inputs": [
        {
          "indexed": false,
          "name": "ethAmount",
          "type": "uint256"
        }
      ],
      "name": "LiquidityAdded",
      "type": "event"
    },
    {
      "anonymous": false,
      "inputs": [
        {
          "indexed": false,
          "name": "ethAmount",
          "type": "uint256"
        }
      ],
      "name": "RemoveLiquidity",
      "type": "event"
    },
    {
      "anonymous": false,
      "inputs": [
        {
          "indexed": true,
          "name": "participant",
          "type": "address"
        },
        {
          "indexed": true,
          "name": "beneficiary",
          "type": "address"
        },
        {
          "indexed": false,
          "name": "ethValue",
          "type": "uint256"
        },
        {
          "indexed": false,
          "name": "numberOfTokens",
          "type": "uint256"
        }
      ],
      "name": "UserDeposited",
      "type": "event"
    },
    {
      "anonymous": false,
      "inputs": [
        {
          "indexed": true,
          "name": "_from",
          "type": "address"
        },
        {
          "indexed": true,
          "name": "_to",
          "type": "address"
        },
        {
          "indexed": false,
          "name": "_value",
          "type": "uint256"
        }
      ],
      "name": "Transfer",
      "type": "event"
    },
    {
      "anonymous": false,
      "inputs": [
        {
          "indexed": true,
          "name": "_owner",
          "type": "address"
        },
        {
          "indexed": true,
          "name": "_spender",
          "type": "address"
        },
        {
          "indexed": false,
          "name": "_value",
          "type": "uint256"
        }
      ],
      "name": "Approval",
      "type": "event"
    },
    {
      "constant": false,
      "inputs": [
        {
          "name": "vestingContractInput",
          "type": "address"
        }
      ],
      "name": "setVestingContract",
      "outputs": [],
      "payable": false,
      "stateMutability": "nonpayable",
      "type": "function"
    },
    {
      "constant": false,
      "inputs": [
        {
          "name": "newNumerator",
          "type": "uint256"
        }
      ],
      "name": "updatePrice",
      "outputs": [],
      "payable": false,
      "stateMutability": "nonpayable",
      "type": "function"
    },
    {
      "constant": false,
      "inputs": [
        {
          "name": "newDenominator",
          "type": "uint256"
        }
      ],
      "name": "updatePriceDenominator",
      "outputs": [],
      "payable": false,
      "stateMutability": "nonpayable",
      "type": "function"
    },
    {
      "constant": false,
      "inputs": [
        {
          "name": "participant",
          "type": "address"
        },
        {
          "name": "numberOfTokens",
          "type": "uint256"
        }
      ],
      "name": "allocatePresaleTokens",
      "outputs": [],
      "payable": false,
      "stateMutability": "nonpayable",
      "type": "function"
    },
    {
      "constant": false,
      "inputs": [
        {
          "name": "participant",
          "type": "address"
        }
      ],
      "name": "verifyParticipant",
      "outputs": [],
      "payable": false,
      "stateMutability": "nonpayable",
      "type": "function"
    },
    {
      "constant": false,
      "inputs": [],
      "name": "deposit",
      "outputs": [],
      "payable": true,
      "stateMutability": "payable",
      "type": "function"
    },
    {
      "constant": false,
      "inputs": [
        {
          "name": "participant",
          "type": "address"
        }
      ],
      "name": "depositTo",
      "outputs": [],
      "payable": true,
      "stateMutability": "payable",
      "type": "function"
    },
    {
      "constant": true,
      "inputs": [],
      "name": "getStagedDenominator",
      "outputs": [
        {
          "name": "",
          "type": "uint256"
        }
      ],
      "payable": false,
      "stateMutability": "view",
      "type": "function"
    },
    {
      "constant": false,
      "inputs": [
        {
          "name": "amountOfTokensToWithdraw",
          "type": "uint256"
        }
      ],
      "name": "requestWithdrawal",
      "outputs": [],
      "payable": false,
      "stateMutability": "nonpayable",
      "type": "function"
    },
    {
      "constant": false,
      "inputs": [],
      "name": "withdraw",
      "outputs": [],
      "payable": false,
      "stateMutability": "nonpayable",
      "type": "function"
    },
    {
      "constant": true,
      "inputs": [
        {
          "name": "amountTokensToWithdraw",
          "type": "uint256"
        }
      ],
      "name": "checkWithdrawValue",
      "outputs": [
        {
          "name": "etherValue",
          "type": "uint256"
        }
      ],
      "payable": false,
      "stateMutability": "view",
      "type": "function"
    },
    {
      "constant": false,
      "inputs": [],
      "name": "addLiquidity",
      "outputs": [],
      "payable": true,
      "stateMutability": "payable",
      "type": "function"
    },
    {
      "constant": false,
      "inputs": [
        {
          "name": "amount",
          "type": "uint256"
        }
      ],
      "name": "removeLiquidity",
      "outputs": [],
      "payable": false,
      "stateMutability": "nonpayable",
      "type": "function"
    },
    {
      "constant": false,
      "inputs": [
        {
          "name": "newFundWallet",
          "type": "address"
        }
      ],
      "name": "changeFundWallet",
      "outputs": [],
      "payable": false,
      "stateMutability": "nonpayable",
      "type": "function"
    },
    {
      "constant": false,
      "inputs": [
        {
          "name": "newControlWallet",
          "type": "address"
        }
      ],
      "name": "changeControlWallet",
      "outputs": [],
      "payable": false,
      "stateMutability": "nonpayable",
      "type": "function"
    },
    {
      "constant": false,
      "inputs": [
        {
          "name": "newPriceUpdateInterval",
          "type": "uint256"
        }
      ],
      "name": "changePriceUpdateInterval",
      "outputs": [],
      "payable": false,
      "stateMutability": "nonpayable",
      "type": "function"
    },
    {
      "constant": false,
      "inputs": [
        {
          "name": "newFundingStartBlock",
          "type": "uint256"
        }
      ],
      "name": "updateFundingStartBlock",
      "outputs": [],
      "payable": false,
      "stateMutability": "nonpayable",
      "type": "function"
    },
    {
      "constant": false,
      "inputs": [
        {
          "name": "newFundingEndBlock",
          "type": "uint256"
        }
      ],
      "name": "updateFundingEndBlock",
      "outputs": [],
      "payable": false,
      "stateMutability": "nonpayable",
      "type": "function"
    },
    {
      "constant": false,
      "inputs": [],
      "name": "halt",
      "outputs": [],
      "payable": false,
      "stateMutability": "nonpayable",
      "type": "function"
    },
    {
      "constant": false,
      "inputs": [],
      "name": "unhalt",
      "outputs": [],
      "payable": false,
      "stateMutability": "nonpayable",
      "type": "function"
    },
    {
      "constant": false,
      "inputs": [],
      "name": "enableTrading",
      "outputs": [],
      "payable": false,
      "stateMutability": "nonpayable",
      "type": "function"
    },
    {
      "constant": false,
      "inputs": [
        {
          "name": "_token",
          "type": "address"
        }
      ],
      "name": "claimTokens",
      "outputs": [],
      "payable": false,
      "stateMutability": "nonpayable",
      "type": "function"
    },
    {
      "constant": false,
      "inputs": [
        {
          "name": "_to",
          "type": "address"
        },
        {
          "name": "_value",
          "type": "uint256"
        }
      ],
      "name": "transfer",
      "outputs": [
        {
          "name": "success",
          "type": "bool"
        }
      ],
      "payable": false,
      "stateMutability": "nonpayable",
      "type": "function"
    },
    {
      "constant": false,
      "inputs": [
        {
          "name": "_from",
          "type": "address"
        },
        {
          "name": "_to",
          "type": "address"
        },
        {
          "name": "_value",
          "type": "uint256"
        }
      ],
      "name": "transferFrom",
      "outputs": [
        {
          "name": "success",
          "type": "bool"
        }
      ],
      "payable": false,
      "stateMutability": "nonpayable",
      "type": "function"
    },
    {
      "constant": true,
      "inputs": [
        {
          "name": "participant",
          "type": "address"
        }
      ],
      "name": "isInWhitelist",
      "outputs": [
        {
          "name": "",
          "type": "bool"
        }
      ],
      "payable": false,
      "stateMutability": "view",
      "type": "function"
    },
    {
      "constant": true,
      "inputs": [],
      "name": "getContractBalance",
      "outputs": [
        {
          "name": "",
          "type": "uint256"
        }
      ],
      "payable": false,
      "stateMutability": "view",
      "type": "function"
    },
    {
      "constant": true,
      "inputs": [],
      "name": "getEtherWalletBalance",
      "outputs": [
        {
          "name": "",
          "type": "uint256"
        }
      ],
      "payable": false,
      "stateMutability": "view",
      "type": "function"
    },
    {
      "constant": true,
      "inputs": [],
      "name": "getVestingContractBalance",
      "outputs": [
        {
          "name": "",
          "type": "uint256"
        }
      ],
      "payable": false,
      "stateMutability": "view",
      "type": "function"
    },
    {
      "constant": true,
      "inputs": [
        {
          "name": "participant",
          "type": "address"
        }
      ],
      "name": "pendingWithdrawalRequestOf",
      "outputs": [
        {
          "name": "tokens",
          "type": "uint256"
        }
      ],
      "payable": false,
      "stateMutability": "view",
      "type": "function"
    }
  ],
  "bytecode": "0x60606040526a5be8b1658c6bb9eabc0000600655668e1bc9bf0400006007556000600860006101000a81548160ff0219169083151502179055506000600860016101000a81548160ff0219169083151502179055506000600c55610e10600d556000601260146101000a81548160ff02191690831515021790555034156200008657600080fd5b60405160408062003e1883398101604052808051906020019091908051906020019091905050600073ffffffffffffffffffffffffffffffffffffffff168273ffffffffffffffffffffffffffffffffffffffff1614151515620000e957600080fd5b600081111515620000f957600080fd5b6040805190810160405280600a81526020017f49736f6e6578546573740000000000000000000000000000000000000000000081525060009080519060200190620001469291906200037b565b506040805190810160405280600881526020017f495832355465737400000000000000000000000000000000000000000000000081525060019080519060200190620001949291906200037b565b506012600260006101000a81548160ff021916908360ff16021790555033601060006101000a81548173ffffffffffffffffffffffffffffffffffffffff021916908373ffffffffffffffffffffffffffffffffffffffff16021790555081601160006101000a81548173ffffffffffffffffffffffffffffffffffffffff021916908373ffffffffffffffffffffffffffffffffffffffff160217905550600160136000601060009054906101000a900473ffffffffffffffffffffffffffffffffffffffff1673ffffffffffffffffffffffffffffffffffffffff1673ffffffffffffffffffffffffffffffffffffffff16815260200190815260200160002060006101000a81548160ff021916908315150217905550600160136000601160009054906101000a900473ffffffffffffffffffffffffffffffffffffffff1673ffffffffffffffffffffffffffffffffffffffff1673ffffffffffffffffffffffffffffffffffffffff16815260200190815260200160002060006101000a81548160ff02191690831515021790555060408051908101604052808281526020016103e881525060096000820151816000015560208201518160010155905050600a4301600e81905550610a6a4301600f8190555042600c8190555050506200042a565b828054600181600116156101000203166002900490600052602060002090601f016020900481019282601f10620003be57805160ff1916838001178555620003ef565b82800160010185558215620003ef579182015b82811115620003ee578251825591602001919060010190620003d1565b5b509050620003fe919062000402565b5090565b6200042791905b808211156200042357600081600090555060010162000409565b5090565b90565b6139de806200043a6000396000f300606060405260043610610267576000357c0100000000000000000000000000000000000000000000000000000000900463ffffffff16806306fdde0314610272578063095ea7b31461030057806309fd82121461035a5780630cd74cd9146103ab57806318160ddd14610400578063202bf0041461042957806323b872dd1461044c578063276605bc146104c5578063313ce567146104e857806338bf7210146105175780633ccfd60b1461054057806355a4d64b146105555780635a8cf5711461057e5780635e6f6045146105b75780635ed7ca5b1461060c5780635ffde7be14610621578063643a76951461064a578063645006ca146106835780636f9fb98a146106ac5780636fb4adff146106d557806370685e4d1461070e57806370a08231146107375780637499156914610784578063823e569e146107bd5780638a8c523c146108125780638d6cc56d146108275780638f11e5f91461084a5780638fee76871461088157806391b43d13146108c35780639281cd65146108ec57806393427af61461094f57806395d89b41146109785780639b19251a14610a065780639c8f9f2314610a575780639d1b464a14610a7a5780639ee679e814610aaa578063a9059cbb14610acd578063b27a048414610b27578063b760faf914610b65578063b9b8af0b14610b93578063cb3e64fd14610bc0578063d0e30db014610bd5578063d648a64714610bdf578063db2b8bbb14610c08578063dbb2455414610c55578063dd54291b14610c78578063dd62ed3e14610ca1578063df8de3e714610d0d578063e28b0d9a14610d46578063e8078d9414610d69578063f5ac9db614610d73575b61027033610da0565b005b341561027d57600080fd5b610285610f81565b6040518080602001828103825283818151815260200191508051906020019080838360005b838110156102c55780820151818401526020810190506102aa565b50505050905090810190601f1680156102f25780820380516001836020036101000a031916815260200191505b509250505060405180910390f35b341561030b57600080fd5b610340600480803573ffffffffffffffffffffffffffffffffffffffff1690602001909190803590602001909190505061101f565b604051808215151515815260200191505060405180910390f35b341561036557600080fd5b610391600480803573ffffffffffffffffffffffffffffffffffffffff169060200190919050506111c0565b604051808215151515815260200191505060405180910390f35b34156103b657600080fd5b6103be611216565b604051808273ffffffffffffffffffffffffffffffffffffffff1673ffffffffffffffffffffffffffffffffffffffff16815260200191505060405180910390f35b341561040b57600080fd5b61041361123c565b6040518082815260200191505060405180910390f35b341561043457600080fd5b61044a6004808035906020019091905050611242565b005b341561045757600080fd5b6104ab600480803573ffffffffffffffffffffffffffffffffffffffff1690602001909190803573ffffffffffffffffffffffffffffffffffffffff169060200190919080359060200190919050506112a8565b604051808215151515815260200191505060405180910390f35b34156104d057600080fd5b6104e66004808035906020019091905050611389565b005b34156104f357600080fd5b6104fb61140d565b604051808260ff1660ff16815260200191505060405180910390f35b341561052257600080fd5b61052a611420565b6040518082815260200191505060405180910390f35b341561054b57600080fd5b610553611496565b005b341561056057600080fd5b610568611862565b6040518082815260200191505060405180910390f35b341561058957600080fd5b6105b5600480803573ffffffffffffffffffffffffffffffffffffffff169060200190919050506118a3565b005b34156105c257600080fd5b6105ca61197f565b604051808273ffffffffffffffffffffffffffffffffffffffff1673ffffffffffffffffffffffffffffffffffffffff16815260200191505060405180910390f35b341561061757600080fd5b61061f6119a5565b005b341561062c57600080fd5b610634611a1e565b6040518082815260200191505060405180910390f35b341561065557600080fd5b610681600480803573ffffffffffffffffffffffffffffffffffffffff16906020019091905050611a24565b005b341561068e57600080fd5b610696611b76565b6040518082815260200191505060405180910390f35b34156106b757600080fd5b6106bf611b7c565b6040518082815260200191505060405180910390f35b34156106e057600080fd5b61070c600480803573ffffffffffffffffffffffffffffffffffffffff16906020019091905050611b9b565b005b341561071957600080fd5b610721611c77565b6040518082815260200191505060405180910390f35b341561074257600080fd5b61076e600480803573ffffffffffffffffffffffffffffffffffffffff16906020019091905050611ce0565b6040518082815260200191505060405180910390f35b341561078f57600080fd5b6107bb600480803573ffffffffffffffffffffffffffffffffffffffff16906020019091905050611d29565b005b34156107c857600080fd5b6107d0611e9a565b604051808273ffffffffffffffffffffffffffffffffffffffff1673ffffffffffffffffffffffffffffffffffffffff16815260200191505060405180910390f35b341561081d57600080fd5b610825611ec0565b005b341561083257600080fd5b6108486004808035906020019091905050611f49565b005b341561085557600080fd5b61086b600480803590602001909190505061209b565b6040518082815260200191505060405180910390f35b341561088c57600080fd5b6108c1600480803573ffffffffffffffffffffffffffffffffffffffff16906020019091908035906020019091905050612114565b005b34156108ce57600080fd5b6108d66122b3565b6040518082815260200191505060405180910390f35b34156108f757600080fd5b610935600480803573ffffffffffffffffffffffffffffffffffffffff169060200190919080359060200190919080359060200190919050506122b9565b604051808215151515815260200191505060405180910390f35b341561095a57600080fd5b61096261244f565b6040518082815260200191505060405180910390f35b341561098357600080fd5b61098b612455565b6040518080602001828103825283818151815260200191508051906020019080838360005b838110156109cb5780820151818401526020810190506109b0565b50505050905090810190601f1680156109f85780820380516001836020036101000a031916815260200191505b509250505060405180910390f35b3415610a1157600080fd5b610a3d600480803573ffffffffffffffffffffffffffffffffffffffff169060200190919050506124f3565b604051808215151515815260200191505060405180910390f35b3415610a6257600080fd5b610a786004808035906020019091905050612513565b005b3415610a8557600080fd5b610a8d612689565b604051808381526020018281526020019250505060405180910390f35b3415610ab557600080fd5b610acb600480803590602001909190505061269b565b005b3415610ad857600080fd5b610b0d600480803573ffffffffffffffffffffffffffffffffffffffff1690602001909190803590602001909190505061295e565b604051808215151515815260200191505060405180910390f35b3415610b3257600080fd5b610b486004808035906020019091905050612a3d565b604051808381526020018281526020019250505060405180910390f35b610b91600480803573ffffffffffffffffffffffffffffffffffffffff16906020019091905050610da0565b005b3415610b9e57600080fd5b610ba6612a61565b604051808215151515815260200191505060405180910390f35b3415610bcb57600080fd5b610bd3612a74565b005b610bdd612aed565b005b3415610bea57600080fd5b610bf2612af8565b6040518082815260200191505060405180910390f35b3415610c1357600080fd5b610c3f600480803573ffffffffffffffffffffffffffffffffffffffff16906020019091905050612afe565b6040518082815260200191505060405180910390f35b3415610c6057600080fd5b610c766004808035906020019091905050612b4a565b005b3415610c8357600080fd5b610c8b612c4b565b6040518082815260200191505060405180910390f35b3415610cac57600080fd5b610cf7600480803573ffffffffffffffffffffffffffffffffffffffff1690602001909190803573ffffffffffffffffffffffffffffffffffffffff16906020019091905050612c51565b6040518082815260200191505060405180910390f35b3415610d1857600080fd5b610d44600480803573ffffffffffffffffffffffffffffffffffffffff16906020019091905050612cd8565b005b3415610d5157600080fd5b610d676004808035906020019091905050612f0a565b005b610d71612f8e565b005b3415610d7e57600080fd5b610d8661308a565b604051808215151515815260200191505060405180910390f35b6000601360003373ffffffffffffffffffffffffffffffffffffffff1673ffffffffffffffffffffffffffffffffffffffff16815260200190815260200160002060009054906101000a900460ff161515610dfa57600080fd5b600860009054906101000a900460ff16151515610e1657600080fd5b600073ffffffffffffffffffffffffffffffffffffffff168273ffffffffffffffffffffffffffffffffffffffff1614151515610e5257600080fd5b6007543410151515610e6357600080fd5b600e544310158015610e765750600f5443105b1515610e8157600080fd5b610e89611420565b610e983460096000015461309d565b811515610ea157fe5b049050610eae82826130d0565b601060009054906101000a900473ffffffffffffffffffffffffffffffffffffffff1673ffffffffffffffffffffffffffffffffffffffff166108fc349081150290604051600060405180830381858888f193505050501515610f1057600080fd5b8173ffffffffffffffffffffffffffffffffffffffff163373ffffffffffffffffffffffffffffffffffffffff167fdeb69f41b4c1fc2384209e922e035ca10841e61e6b1f685e0699f9dfa886009f3484604051808381526020018281526020019250505060405180910390a35050565b60008054600181600116156101000203166002900480601f0160208091040260200160405190810160405280929190818152602001828054600181600116156101000203166002900480156110175780601f10610fec57610100808354040283529160200191611017565b820191906000526020600020905b815481529060010190602001808311610ffa57829003601f168201915b505050505081565b600060026004602082020160003690501015151561103957fe5b60008314806110c457506000600560003373ffffffffffffffffffffffffffffffffffffffff1673ffffffffffffffffffffffffffffffffffffffff16815260200190815260200160002060008673ffffffffffffffffffffffffffffffffffffffff1673ffffffffffffffffffffffffffffffffffffffff16815260200190815260200160002054145b15156110cf57600080fd5b82600560003373ffffffffffffffffffffffffffffffffffffffff1673ffffffffffffffffffffffffffffffffffffffff16815260200190815260200160002060008673ffffffffffffffffffffffffffffffffffffffff1673ffffffffffffffffffffffffffffffffffffffff168152602001908152602001600020819055508373ffffffffffffffffffffffffffffffffffffffff163373ffffffffffffffffffffffffffffffffffffffff167f8c5be1e5ebec7d5bd14f71427d1e84f3dd0314c0f7b2291e5b200ac8c7c3b925856040518082815260200191505060405180910390a3600191505092915050565b6000601360008373ffffffffffffffffffffffffffffffffffffffff1673ffffffffffffffffffffffffffffffffffffffff16815260200190815260200160002060009054906101000a900460ff169050919050565b601060009054906101000a900473ffffffffffffffffffffffffffffffffffffffff1681565b60035481565b601060009054906101000a900473ffffffffffffffffffffffffffffffffffffffff1673ffffffffffffffffffffffffffffffffffffffff163373ffffffffffffffffffffffffffffffffffffffff1614151561129e57600080fd5b80600d8190555050565b6000600860019054906101000a900460ff16806113125750601060009054906101000a900473ffffffffffffffffffffffffffffffffffffffff1673ffffffffffffffffffffffffffffffffffffffff163373ffffffffffffffffffffffffffffffffffffffff16145b8061136a5750601260009054906101000a900473ffffffffffffffffffffffffffffffffffffffff1673ffffffffffffffffffffffffffffffffffffffff163373ffffffffffffffffffffffffffffffffffffffff16145b151561137557600080fd5b6113808484846132b0565b90509392505050565b601060009054906101000a900473ffffffffffffffffffffffffffffffffffffffff1673ffffffffffffffffffffffffffffffffffffffff163373ffffffffffffffffffffffffffffffffffffffff161415156113e557600080fd5b600e54431015156113f557600080fd5b804310151561140357600080fd5b80600e8190555050565b600260009054906101000a900460ff1681565b60008061142f43600e54613677565b9050600a811015611447576009600101549150611492565b6014811015611473576064611462600960010154606961309d565b81151561146b57fe5b049150611492565b6064611485600960010154606e61309d565b81151561148e57fe5b0491505b5090565b6000806000806000339450601460008673ffffffffffffffffffffffffffffffffffffffff1673ffffffffffffffffffffffffffffffffffffffff1681526020019081526020016000206000015493506000841115156114f557600080fd5b601460008673ffffffffffffffffffffffffffffffffffffffff1673ffffffffffffffffffffffffffffffffffffffff168152602001908152602001600020600101549250600b600084815260200190815260200160002091506000826000015411151561156257600080fd5b816000015461157585846001015461309d565b81151561157e57fe5b0490506000601460008773ffffffffffffffffffffffffffffffffffffffff1673ffffffffffffffffffffffffffffffffffffffff16815260200190815260200160002060000181905550803073ffffffffffffffffffffffffffffffffffffffff1631101515156115ec57fe5b803073ffffffffffffffffffffffffffffffffffffffff16311015156117775761167760046000601060009054906101000a900473ffffffffffffffffffffffffffffffffffffffff1673ffffffffffffffffffffffffffffffffffffffff1673ffffffffffffffffffffffffffffffffffffffff1681526020019081526020016000205485613690565b60046000601060009054906101000a900473ffffffffffffffffffffffffffffffffffffffff1673ffffffffffffffffffffffffffffffffffffffff1673ffffffffffffffffffffffffffffffffffffffff168152602001908152602001600020819055508473ffffffffffffffffffffffffffffffffffffffff166108fc829081150290604051600060405180830381858888f19350505050151561171c57600080fd5b8473ffffffffffffffffffffffffffffffffffffffff167fadec52fcd1408589179b85e44b434374db078b4eaf793e7d1a1bb0ae4ecfeee58286604051808381526020018281526020019250505060405180910390a261185b565b6117c0600460008773ffffffffffffffffffffffffffffffffffffffff1673ffffffffffffffffffffffffffffffffffffffff1681526020019081526020016000205485613690565b600460008773ffffffffffffffffffffffffffffffffffffffff1673ffffffffffffffffffffffffffffffffffffffff168152602001908152602001600020819055508473ffffffffffffffffffffffffffffffffffffffff167fadec52fcd1408589179b85e44b434374db078b4eaf793e7d1a1bb0ae4ecfeee5826000604051808381526020018281526020019250505060405180910390a25b5050505050565b6000601060009054906101000a900473ffffffffffffffffffffffffffffffffffffffff1673ffffffffffffffffffffffffffffffffffffffff1631905090565b601060009054906101000a900473ffffffffffffffffffffffffffffffffffffffff1673ffffffffffffffffffffffffffffffffffffffff163373ffffffffffffffffffffffffffffffffffffffff161415156118ff57600080fd5b600073ffffffffffffffffffffffffffffffffffffffff168173ffffffffffffffffffffffffffffffffffffffff161415151561193b57600080fd5b80601160006101000a81548173ffffffffffffffffffffffffffffffffffffffff021916908373ffffffffffffffffffffffffffffffffffffffff16021790555050565b601260009054906101000a900473ffffffffffffffffffffffffffffffffffffffff1681565b601060009054906101000a900473ffffffffffffffffffffffffffffffffffffffff1673ffffffffffffffffffffffffffffffffffffffff163373ffffffffffffffffffffffffffffffffffffffff16141515611a0157600080fd5b6001600860006101000a81548160ff021916908315150217905550565b600d5481565b601160009054906101000a900473ffffffffffffffffffffffffffffffffffffffff1673ffffffffffffffffffffffffffffffffffffffff163373ffffffffffffffffffffffffffffffffffffffff161480611acd5750601060009054906101000a900473ffffffffffffffffffffffffffffffffffffffff1673ffffffffffffffffffffffffffffffffffffffff163373ffffffffffffffffffffffffffffffffffffffff16145b1515611ad857600080fd5b6001601360008373ffffffffffffffffffffffffffffffffffffffff1673ffffffffffffffffffffffffffffffffffffffff16815260200190815260200160002060006101000a81548160ff0219169083151502179055508073ffffffffffffffffffffffffffffffffffffffff167faab7954e9d246b167ef88aeddad35209ca2489d95a8aeb59e288d9b19fae5a5460405160405180910390a250565b60075481565b60003073ffffffffffffffffffffffffffffffffffffffff1631905090565b601060009054906101000a900473ffffffffffffffffffffffffffffffffffffffff1673ffffffffffffffffffffffffffffffffffffffff163373ffffffffffffffffffffffffffffffffffffffff16141515611bf757600080fd5b600073ffffffffffffffffffffffffffffffffffffffff168173ffffffffffffffffffffffffffffffffffffffff1614151515611c3357600080fd5b80601060006101000a81548173ffffffffffffffffffffffffffffffffffffffff021916908373ffffffffffffffffffffffffffffffffffffffff16021790555050565b600060046000601260009054906101000a900473ffffffffffffffffffffffffffffffffffffffff1673ffffffffffffffffffffffffffffffffffffffff1673ffffffffffffffffffffffffffffffffffffffff16815260200190815260200160002054905090565b6000600460008373ffffffffffffffffffffffffffffffffffffffff1673ffffffffffffffffffffffffffffffffffffffff168152602001908152602001600020549050919050565b601060009054906101000a900473ffffffffffffffffffffffffffffffffffffffff1673ffffffffffffffffffffffffffffffffffffffff163373ffffffffffffffffffffffffffffffffffffffff16141515611d8557600080fd5b600073ffffffffffffffffffffffffffffffffffffffff168173ffffffffffffffffffffffffffffffffffffffff1614151515611dc157600080fd5b80601260006101000a81548173ffffffffffffffffffffffffffffffffffffffff021916908373ffffffffffffffffffffffffffffffffffffffff160217905550600160136000601260009054906101000a900473ffffffffffffffffffffffffffffffffffffffff1673ffffffffffffffffffffffffffffffffffffffff1673ffffffffffffffffffffffffffffffffffffffff16815260200190815260200160002060006101000a81548160ff0219169083151502179055506001601260146101000a81548160ff02191690831515021790555050565b601160009054906101000a900473ffffffffffffffffffffffffffffffffffffffff1681565b601060009054906101000a900473ffffffffffffffffffffffffffffffffffffffff1673ffffffffffffffffffffffffffffffffffffffff163373ffffffffffffffffffffffffffffffffffffffff16141515611f1c57600080fd5b600f5443111515611f2c57600080fd5b6001600860016101000a81548160ff021916908315150217905550565b601160009054906101000a900473ffffffffffffffffffffffffffffffffffffffff1673ffffffffffffffffffffffffffffffffffffffff163373ffffffffffffffffffffffffffffffffffffffff161480611ff25750601060009054906101000a900473ffffffffffffffffffffffffffffffffffffffff1673ffffffffffffffffffffffffffffffffffffffff163373ffffffffffffffffffffffffffffffffffffffff16145b1515611ffd57600080fd5b60008111151561200c57600080fd5b612015816136ba565b806009600001819055506009600b6000600c548152602001908152602001600020600082015481600001556001820154816001015590505042600c819055507f92664190cca12aca9cd5309d87194bdda75bb51362d71c06e1a6f75c7c76571181600960010154604051808381526020018281526020019250505060405180910390a150565b6000806000831115156120ad57600080fd5b826120b733611ce0565b101515156120c457600080fd5b6009600001546120d98460096001015461309d565b8115156120e257fe5b049050803073ffffffffffffffffffffffffffffffffffffffff16311015151561210b57600080fd5b80915050919050565b601060009054906101000a900473ffffffffffffffffffffffffffffffffffffffff1673ffffffffffffffffffffffffffffffffffffffff163373ffffffffffffffffffffffffffffffffffffffff1614151561217057600080fd5b600f544310151561218057600080fd5b600073ffffffffffffffffffffffffffffffffffffffff168273ffffffffffffffffffffffffffffffffffffffff16141515156121bc57600080fd5b6001601360008473ffffffffffffffffffffffffffffffffffffffff1673ffffffffffffffffffffffffffffffffffffffff16815260200190815260200160002060006101000a81548160ff02191690831515021790555061221e82826130d0565b8173ffffffffffffffffffffffffffffffffffffffff167faab7954e9d246b167ef88aeddad35209ca2489d95a8aeb59e288d9b19fae5a5460405160405180910390a28173ffffffffffffffffffffffffffffffffffffffff167f69488271d7ab6c5d1d852b2fedbeafcee0ad158162b8c58145130bacd56bff76826040518082815260200191505060405180910390a25050565b600f5481565b60006003600460208202016000369050101515156122d357fe5b83600560003373ffffffffffffffffffffffffffffffffffffffff1673ffffffffffffffffffffffffffffffffffffffff16815260200190815260200160002060008773ffffffffffffffffffffffffffffffffffffffff1673ffffffffffffffffffffffffffffffffffffffff1681526020019081526020016000205414151561235d57600080fd5b82600560003373ffffffffffffffffffffffffffffffffffffffff1673ffffffffffffffffffffffffffffffffffffffff16815260200190815260200160002060008773ffffffffffffffffffffffffffffffffffffffff1673ffffffffffffffffffffffffffffffffffffffff168152602001908152602001600020819055508473ffffffffffffffffffffffffffffffffffffffff163373ffffffffffffffffffffffffffffffffffffffff167f8c5be1e5ebec7d5bd14f71427d1e84f3dd0314c0f7b2291e5b200ac8c7c3b925856040518082815260200191505060405180910390a360019150509392505050565b600c5481565b60018054600181600116156101000203166002900480601f0160208091040260200160405190810160405280929190818152602001828054600181600116156101000203166002900480156124eb5780601f106124c0576101008083540402835291602001916124eb565b820191906000526020600020905b8154815290600101906020018083116124ce57829003601f168201915b505050505081565b60136020528060005260406000206000915054906101000a900460ff1681565b601160009054906101000a900473ffffffffffffffffffffffffffffffffffffffff1673ffffffffffffffffffffffffffffffffffffffff163373ffffffffffffffffffffffffffffffffffffffff1614806125bc5750601060009054906101000a900473ffffffffffffffffffffffffffffffffffffffff1673ffffffffffffffffffffffffffffffffffffffff163373ffffffffffffffffffffffffffffffffffffffff16145b15156125c757600080fd5b3073ffffffffffffffffffffffffffffffffffffffff163181111515156125ed57600080fd5b601060009054906101000a900473ffffffffffffffffffffffffffffffffffffffff1673ffffffffffffffffffffffffffffffffffffffff166108fc829081150290604051600060405180830381858888f19350505050151561264f57600080fd5b7f9a5a8a32afd899e7f95003c6e21c9fab2d50e11992439d14472229180c60c7aa816040518082815260200191505060405180910390a150565b60098060000154908060010154905082565b6000600860019054906101000a900460ff16806127055750601060009054906101000a900473ffffffffffffffffffffffffffffffffffffffff1673ffffffffffffffffffffffffffffffffffffffff163373ffffffffffffffffffffffffffffffffffffffff16145b8061275d5750601260009054906101000a900473ffffffffffffffffffffffffffffffffffffffff1673ffffffffffffffffffffffffffffffffffffffff163373ffffffffffffffffffffffffffffffffffffffff16145b151561276857600080fd5b601360003373ffffffffffffffffffffffffffffffffffffffff1673ffffffffffffffffffffffffffffffffffffffff16815260200190815260200160002060009054906101000a900460ff1615156127c057600080fd5b600f54431115156127d057600080fd5b6000821115156127df57600080fd5b339050816127ec82611ce0565b101515156127f957600080fd5b6000601460008373ffffffffffffffffffffffffffffffffffffffff1673ffffffffffffffffffffffffffffffffffffffff1681526020019081526020016000206000015414151561284a57600080fd5b61285c61285682611ce0565b83613677565b600460008373ffffffffffffffffffffffffffffffffffffffff1673ffffffffffffffffffffffffffffffffffffffff168152602001908152602001600020819055506040805190810160405280838152602001600c54815250601460008373ffffffffffffffffffffffffffffffffffffffff1673ffffffffffffffffffffffffffffffffffffffff16815260200190815260200160002060008201518160000155602082015181600101559050508073ffffffffffffffffffffffffffffffffffffffff167fe670e4e82118d22a1f9ee18920455ebc958bae26a90a05d31d3378788b1b0e44836040518082815260200191505060405180910390a25050565b6000600860019054906101000a900460ff16806129c85750601060009054906101000a900473ffffffffffffffffffffffffffffffffffffffff1673ffffffffffffffffffffffffffffffffffffffff163373ffffffffffffffffffffffffffffffffffffffff16145b80612a205750601260009054906101000a900473ffffffffffffffffffffffffffffffffffffffff1673ffffffffffffffffffffffffffffffffffffffff163373ffffffffffffffffffffffffffffffffffffffff16145b1515612a2b57600080fd5b612a35838361377a565b905092915050565b600b6020528060005260406000206000915090508060000154908060010154905082565b600860009054906101000a900460ff1681565b601060009054906101000a900473ffffffffffffffffffffffffffffffffffffffff1673ffffffffffffffffffffffffffffffffffffffff163373ffffffffffffffffffffffffffffffffffffffff16141515612ad057600080fd5b6000600860006101000a81548160ff021916908315150217905550565b612af633610da0565b565b600e5481565b6000601460008373ffffffffffffffffffffffffffffffffffffffff1673ffffffffffffffffffffffffffffffffffffffff168152602001908152602001600020600001549050919050565b601060009054906101000a900473ffffffffffffffffffffffffffffffffffffffff1673ffffffffffffffffffffffffffffffffffffffff163373ffffffffffffffffffffffffffffffffffffffff16141515612ba657600080fd5b600f5443111515612bb657600080fd5b600081111515612bc557600080fd5b806009600101819055506009600b6000600c548152602001908152602001600020600082015481600001556001820154816001015590505042600c819055507f92664190cca12aca9cd5309d87194bdda75bb51362d71c06e1a6f75c7c76571160096000015482604051808381526020018281526020019250505060405180910390a150565b60065481565b6000600560008473ffffffffffffffffffffffffffffffffffffffff1673ffffffffffffffffffffffffffffffffffffffff16815260200190815260200160002060008373ffffffffffffffffffffffffffffffffffffffff1673ffffffffffffffffffffffffffffffffffffffff16815260200190815260200160002054905092915050565b600080601060009054906101000a900473ffffffffffffffffffffffffffffffffffffffff1673ffffffffffffffffffffffffffffffffffffffff163373ffffffffffffffffffffffffffffffffffffffff16141515612d3757600080fd5b600073ffffffffffffffffffffffffffffffffffffffff168373ffffffffffffffffffffffffffffffffffffffff1614151515612d7357600080fd5b8291508173ffffffffffffffffffffffffffffffffffffffff166370a08231306040518263ffffffff167c0100000000000000000000000000000000000000000000000000000000028152600401808273ffffffffffffffffffffffffffffffffffffffff1673ffffffffffffffffffffffffffffffffffffffff168152602001915050602060405180830381600087803b1515612e1057600080fd5b5af11515612e1d57600080fd5b5050506040518051905090508173ffffffffffffffffffffffffffffffffffffffff1663a9059cbb601060009054906101000a900473ffffffffffffffffffffffffffffffffffffffff16836040518363ffffffff167c0100000000000000000000000000000000000000000000000000000000028152600401808373ffffffffffffffffffffffffffffffffffffffff1673ffffffffffffffffffffffffffffffffffffffff16815260200182815260200192505050602060405180830381600087803b1515612eed57600080fd5b5af11515612efa57600080fd5b5050506040518051905050505050565b601060009054906101000a900473ffffffffffffffffffffffffffffffffffffffff1673ffffffffffffffffffffffffffffffffffffffff163373ffffffffffffffffffffffffffffffffffffffff16141515612f6657600080fd5b600f5443101515612f7657600080fd5b8043101515612f8457600080fd5b80600f8190555050565b601160009054906101000a900473ffffffffffffffffffffffffffffffffffffffff1673ffffffffffffffffffffffffffffffffffffffff163373ffffffffffffffffffffffffffffffffffffffff1614806130375750601060009054906101000a900473ffffffffffffffffffffffffffffffffffffffff1673ffffffffffffffffffffffffffffffffffffffff163373ffffffffffffffffffffffffffffffffffffffff16145b151561304257600080fd5b60003411151561305157600080fd5b7ffdb748c915e4e67b4bb23287bf4295a4595ce48b50343214369f72ccfb974cfa346040518082815260200191505060405180910390a1565b600860019054906101000a900460ff1681565b600080828402905060008414806130be57508284828115156130bb57fe5b04145b15156130c657fe5b8091505092915050565b600080601260149054906101000a900460ff1615156130ee57600080fd5b67016345785d8a0000613108846627797f26d671c761309d565b81151561311157fe5b04915061311e8383613690565b905060065461312f60035483613690565b1115151561313c57600080fd5b61314860035482613690565b600381905550613197600460008673ffffffffffffffffffffffffffffffffffffffff1673ffffffffffffffffffffffffffffffffffffffff1681526020019081526020016000205484613690565b600460008673ffffffffffffffffffffffffffffffffffffffff1673ffffffffffffffffffffffffffffffffffffffff1681526020019081526020016000208190555061324560046000601260009054906101000a900473ffffffffffffffffffffffffffffffffffffffff1673ffffffffffffffffffffffffffffffffffffffff1673ffffffffffffffffffffffffffffffffffffffff1681526020019081526020016000205483613690565b60046000601260009054906101000a900473ffffffffffffffffffffffffffffffffffffffff1673ffffffffffffffffffffffffffffffffffffffff1673ffffffffffffffffffffffffffffffffffffffff1681526020019081526020016000208190555050505050565b60006003600460208202016000369050101515156132ca57fe5b600073ffffffffffffffffffffffffffffffffffffffff168473ffffffffffffffffffffffffffffffffffffffff161415151561330657600080fd5b82600460008773ffffffffffffffffffffffffffffffffffffffff1673ffffffffffffffffffffffffffffffffffffffff16815260200190815260200160002054101580156133d1575082600560008773ffffffffffffffffffffffffffffffffffffffff1673ffffffffffffffffffffffffffffffffffffffff16815260200190815260200160002060003373ffffffffffffffffffffffffffffffffffffffff1673ffffffffffffffffffffffffffffffffffffffff1681526020019081526020016000205410155b80156133dd5750600083115b15156133e857600080fd5b613431600460008773ffffffffffffffffffffffffffffffffffffffff1673ffffffffffffffffffffffffffffffffffffffff1681526020019081526020016000205484613677565b600460008773ffffffffffffffffffffffffffffffffffffffff1673ffffffffffffffffffffffffffffffffffffffff168152602001908152602001600020819055506134bd600460008673ffffffffffffffffffffffffffffffffffffffff1673ffffffffffffffffffffffffffffffffffffffff1681526020019081526020016000205484613690565b600460008673ffffffffffffffffffffffffffffffffffffffff1673ffffffffffffffffffffffffffffffffffffffff16815260200190815260200160002081905550613586600560008773ffffffffffffffffffffffffffffffffffffffff1673ffffffffffffffffffffffffffffffffffffffff16815260200190815260200160002060003373ffffffffffffffffffffffffffffffffffffffff1673ffffffffffffffffffffffffffffffffffffffff1681526020019081526020016000205484613677565b600560008773ffffffffffffffffffffffffffffffffffffffff1673ffffffffffffffffffffffffffffffffffffffff16815260200190815260200160002060003373ffffffffffffffffffffffffffffffffffffffff1673ffffffffffffffffffffffffffffffffffffffff168152602001908152602001600020819055508373ffffffffffffffffffffffffffffffffffffffff168573ffffffffffffffffffffffffffffffffffffffff167fddf252ad1be2c89b69c2b068fc378daa952ba7f163c4a11628f55a4df523b3ef856040518082815260200191505060405180910390a360019150509392505050565b600082821115151561368557fe5b818303905092915050565b60008082840190508381101580156136a85750828110155b15156136b057fe5b8091505092915050565b6000601160009054906101000a900473ffffffffffffffffffffffffffffffffffffffff1673ffffffffffffffffffffffffffffffffffffffff163373ffffffffffffffffffffffffffffffffffffffff16141561377657600c5461372142600d54613677565b1015151561372e57600080fd5b816009600001548111156137745761376160096000015461375085606461309d565b81151561375957fe5b046064613677565b91506014821115151561377357600080fd5b5b505b5050565b600060026004602082020160003690501015151561379457fe5b600073ffffffffffffffffffffffffffffffffffffffff168473ffffffffffffffffffffffffffffffffffffffff16141515156137d057600080fd5b82600460003373ffffffffffffffffffffffffffffffffffffffff1673ffffffffffffffffffffffffffffffffffffffff168152602001908152602001600020541015801561381f5750600083115b151561382a57600080fd5b613873600460003373ffffffffffffffffffffffffffffffffffffffff1673ffffffffffffffffffffffffffffffffffffffff1681526020019081526020016000205484613677565b600460003373ffffffffffffffffffffffffffffffffffffffff1673ffffffffffffffffffffffffffffffffffffffff168152602001908152602001600020819055506138ff600460008673ffffffffffffffffffffffffffffffffffffffff1673ffffffffffffffffffffffffffffffffffffffff1681526020019081526020016000205484613690565b600460008673ffffffffffffffffffffffffffffffffffffffff1673ffffffffffffffffffffffffffffffffffffffff168152602001908152602001600020819055508373ffffffffffffffffffffffffffffffffffffffff163373ffffffffffffffffffffffffffffffffffffffff167fddf252ad1be2c89b69c2b068fc378daa952ba7f163c4a11628f55a4df523b3ef856040518082815260200191505060405180910390a36001915050929150505600a165627a7a723058208c4b94ef158fbfc5d6f24fdf4e825778bbed648ce5f3438c4f4838e54597e96c0029",
  "source": "pragma solidity ^0.4.20;\r\n// check public fields\r\n\r\nimport \"./ERC20.sol\";\r\n\r\ncontract IsonexTest is ERC20 {\r\n\r\n    //uint256 public tokenCap = 114942528 * 10**18; // using a 13% share for team. We probably want to change this to 10\r\n\r\n    uint256 public tokenCap = 111111111 * 10**18;\r\n\r\n    uint256 public minDepositAmount = 0.04 ether; // The minimum amount of ether allowed when depositing using the depositTo function\r\n\r\n    bool public halted = false;\r\n    bool public tradeable = false;\r\n\r\n    struct Price { uint256 numerator; uint256 denominator; } // The number of Isonex tokens per Ether\r\n    Price public currentPrice;\r\n    mapping (uint256 => Price) public priceHistory;\r\n    uint256 public currentPriceTimeWindow = 0;\r\n    uint256 public priceUpdateInterval = 1 hours; // The amount of time that the control wallet must wait between price updates\r\n\r\n    uint256 public fundingStartBlock;\r\n    uint256 public fundingEndBlock;\r\n\r\n    address public etherWallet; // change this name - maybe main wallet\r\n    address public controlWallet; // change this name - maybe limited wallet\r\n    address public vestingContract; // change name?\r\n    bool private vestingSet = false;\r\n\r\n    mapping (address => bool) public whitelist;\r\n\r\n    struct WithdrawalRequest { uint256 nummberOfTokens; uint256 time; } // time for each withdrawal is set to the currentPriceTimeWindow\r\n    mapping (address => WithdrawalRequest) withdrawalRequests;\r\n\r\n    modifier onlyWhitelist {\r\n        require(whitelist[msg.sender]);\r\n        _;\r\n    }\r\n\r\n    modifier onlyFundWallet {\r\n        require(msg.sender == etherWallet);\r\n        _;\r\n    }\r\n\r\n    modifier onlyControlWallet {\r\n        if (msg.sender == controlWallet)\r\n\t\t_;\r\n    }\r\n\r\n    modifier onlyManagingWallets {\r\n        require(msg.sender == controlWallet || msg.sender == etherWallet);\r\n        _;\r\n    }\r\n\r\n    modifier priceUpdateIntervalElapsed {\r\n        require(safeSub(now, priceUpdateInterval) >= currentPriceTimeWindow);\r\n        _;\r\n    }\r\n\r\n    modifier newNumeratorGreater (uint256 newNumerator) {\r\n        if (newNumerator > currentPrice.numerator)\r\n        _;\r\n    }\r\n\r\n    modifier isTradeable { // exempt vestingContract and fundWallet to allow dev allocations\r\n        require(tradeable || msg.sender == etherWallet || msg.sender == vestingContract);\r\n        _;\r\n    }\r\n\r\n    event PriceUpdate(uint256 numerator, uint256 denominator);\r\n    event AllocatePresale(address indexed participant, uint256 numberOfTokens);\r\n    event Whitelisted(address indexed participant);\r\n    event WithdrawalRequested(address indexed participant, uint256 numberOfTokens);\r\n    event Withdrew(address indexed participant, uint256 etherAmount, uint256 numberOfTokens);\r\n    event LiquidityAdded(uint256 ethAmount);\r\n    event RemoveLiquidity(uint256 ethAmount);\r\n    event UserDeposited(address indexed participant, address indexed beneficiary, uint256 ethValue, uint256 numberOfTokens);\r\n\r\n    function IsonexTest(address controlWalletInput, uint256 priceNumeratorInput) public {\r\n        require(controlWalletInput != address(0));\r\n        require(priceNumeratorInput > 0);\r\n        name = \"IsonexTest\";\r\n        symbol = \"IX25Test\";\r\n        decimals = 18;\r\n        etherWallet = msg.sender;\r\n        controlWallet = controlWalletInput;\r\n        whitelist[etherWallet] = true;\r\n        whitelist[controlWallet] = true;\r\n        currentPrice = Price(priceNumeratorInput, 1000); // 1 token = 1 usd at ICO start\r\n        fundingStartBlock = block.number + 10; // these should be parameters\r\n        fundingEndBlock = block.number + 2666; // ~ 5 days on testnet\r\n        currentPriceTimeWindow = now; // maybe change to block number or something\r\n    }\r\n\r\n    \r\n    function setVestingContract(address vestingContractInput) external onlyFundWallet {\r\n        require(vestingContractInput != address(0));\r\n        vestingContract = vestingContractInput;\r\n        whitelist[vestingContract] = true;\r\n        vestingSet = true;\r\n    }\r\n\r\n    // allows controlWallet to update the price within a time contstraint, allows fundWallet complete control\r\n    function updatePrice(uint256 newNumerator) external onlyManagingWallets {\r\n        require(newNumerator > 0);\r\n        applySecondaryWalletChangeRestrictions(newNumerator);\r\n        currentPrice.numerator = newNumerator;\r\n        // maps time to new Price (if not during ICO)\r\n        priceHistory[currentPriceTimeWindow] = currentPrice;\r\n        currentPriceTimeWindow = now;\r\n        emit PriceUpdate(newNumerator, currentPrice.denominator);\r\n    }\r\n\r\n    // controlWallet can only increase price by max 20% and only every priceUpdateInterval\r\n    function applySecondaryWalletChangeRestrictions (uint256 newNumerator) private onlyControlWallet priceUpdateIntervalElapsed newNumeratorGreater(newNumerator) {\r\n        uint256 percentageDiff = safeSub(safeMul(newNumerator, 100) / currentPrice.numerator, 100);\r\n        require(percentageDiff <= 20);\r\n    }\r\n\r\n    function updatePriceDenominator(uint256 newDenominator) external onlyFundWallet {\r\n        require(block.number > fundingEndBlock);\r\n        require(newDenominator > 0);\r\n        currentPrice.denominator = newDenominator;\r\n        // maps time to new Price\r\n        priceHistory[currentPriceTimeWindow] = currentPrice;\r\n        currentPriceTimeWindow = now;\r\n        emit PriceUpdate(currentPrice.numerator, newDenominator);\r\n    }\r\n\r\n    function allocateTokens(address participant, uint256 numberOfTokens) private {\r\n        require(vestingSet);\r\n        // 10% of total allocated for PR, Marketing, Team, Advisors\r\n        uint256 additionTokens = safeMul(numberOfTokens, 11111111111111111) / 100000000000000000; // need to check that this is a 10% increase\r\n           \r\n        // check that token cap is not exceeded\r\n        uint256 totalNumberOfTokens = safeAdd(numberOfTokens, additionTokens);\r\n        require(safeAdd(totalSupply, totalNumberOfTokens) <= tokenCap);\r\n        // increase token supply, assign tokens to participant\r\n        totalSupply = safeAdd(totalSupply, totalNumberOfTokens);\r\n        balances[participant] = safeAdd(balances[participant], numberOfTokens);\r\n        balances[vestingContract] = safeAdd(balances[vestingContract], additionTokens);\r\n    }\r\n\r\n    function allocatePresaleTokens(address participant, uint numberOfTokens) external onlyFundWallet {\r\n        require(block.number < fundingEndBlock);\r\n        require(participant != address(0));\r\n        whitelist[participant] = true;\r\n        allocateTokens(participant, numberOfTokens);\r\n        emit Whitelisted(participant);\r\n        emit AllocatePresale(participant, numberOfTokens);\r\n    }\r\n\r\n    function verifyParticipant(address participant) external onlyManagingWallets {\r\n        whitelist[participant] = true;\r\n        emit Whitelisted(participant);\r\n    }\r\n\r\n    function deposit() external payable {\r\n        depositTo(msg.sender);\r\n    }\r\n    \r\n    function depositTo(address participant) public payable onlyWhitelist {\r\n        require(!halted);\r\n        require(participant != address(0));\r\n        require(msg.value >= minDepositAmount);\r\n        require(block.number >= fundingStartBlock && block.number < fundingEndBlock);\r\n        uint256 tokensToBuy = safeMul(msg.value, currentPrice.numerator) / getStagedDenominator();\r\n        allocateTokens(participant, tokensToBuy);\r\n        // send ether to fundWallet\r\n        etherWallet.transfer(msg.value);\r\n        //Buy(msg.sender, participant, msg.value, tokensToBuy);\r\n        emit UserDeposited(msg.sender, participant, msg.value, tokensToBuy);\r\n    }\r\n\r\n    function getStagedDenominator() public constant returns (uint256) {\r\n        uint256 blocksSinceFundingStartBlock = safeSub(block.number, fundingStartBlock);\r\n        //if (icoDuration < 2880) { // #blocks = 24*60*60/30 = 2880\r\n        if (blocksSinceFundingStartBlock < 10) {\r\n            return currentPrice.denominator;\r\n        //} else if (icoDuration < 80640 ) { // #blocks = 4*7*24*60*60/30 = 80640\r\n        } else if (blocksSinceFundingStartBlock < 20 ) {\r\n            return safeMul(currentPrice.denominator, 105) / 100;\r\n        } else {\r\n            return safeMul(currentPrice.denominator, 110) / 100;\r\n        }\r\n    }\r\n\r\n\r\n\r\n\r\n\r\n\r\n    function requestWithdrawal(uint256 amountOfTokensToWithdraw) external isTradeable onlyWhitelist {\r\n        require(block.number > fundingEndBlock);\r\n        require(amountOfTokensToWithdraw > 0);\r\n        address participant = msg.sender;\r\n        require(balanceOf(participant) >= amountOfTokensToWithdraw);\r\n        require(withdrawalRequests[participant].nummberOfTokens == 0); // participant cannot have outstanding withdrawals\r\n        balances[participant] = safeSub(balanceOf(participant), amountOfTokensToWithdraw);\r\n        withdrawalRequests[participant] = WithdrawalRequest({nummberOfTokens: amountOfTokensToWithdraw, time: currentPriceTimeWindow});\r\n        emit WithdrawalRequested(participant, amountOfTokensToWithdraw);\r\n    }\r\n\r\n    function withdraw() external {\r\n        address participant = msg.sender;\r\n        uint256 nummberOfTokens = withdrawalRequests[participant].nummberOfTokens;\r\n        require(nummberOfTokens > 0); // participant must have requested a withdrawal\r\n        uint256 requestTime = withdrawalRequests[participant].time;\r\n        // obtain the next price that was set after the request\r\n        Price price = priceHistory[requestTime];\r\n        require(price.numerator > 0); // price must have been set\r\n        uint256 etherAmount = safeMul(nummberOfTokens, price.denominator) / price.numerator;\r\n        withdrawalRequests[participant].nummberOfTokens = 0;\r\n\t\t\r\n        // Make sure we have enough ether in the contract to send to the participant\r\n        assert(this.balance >= etherAmount);\r\n\r\n        // if contract ethbal > then send + transfer tokens to fundWallet, otherwise give tokens back\r\n        if (this.balance >= etherAmount) {\r\n            // Move the Isonex tokens to the ether wallet\r\n            balances[etherWallet] = safeAdd(balances[etherWallet], nummberOfTokens);\r\n            // Send ether from the contract wallet to the participant\r\n            participant.transfer(etherAmount);\r\n            emit Withdrew(participant, etherAmount, nummberOfTokens);\r\n        }\r\n        else {\r\n            balances[participant] = safeAdd(balances[participant], nummberOfTokens);\r\n            emit Withdrew(participant, etherAmount, 0); // failed withdrawal\r\n        }\r\n    }\r\n\r\n    function checkWithdrawValue(uint256 amountTokensToWithdraw) public constant returns (uint256 etherValue) {\r\n        require(amountTokensToWithdraw > 0);\r\n        require(balanceOf(msg.sender) >= amountTokensToWithdraw);\r\n        uint256 withdrawValue = safeMul(amountTokensToWithdraw, currentPrice.denominator) / currentPrice.numerator;\r\n        require(this.balance >= withdrawValue);\r\n        return withdrawValue;\r\n    }\r\n\r\n    // allow fundWallet or controlWallet to add ether to contract\r\n    function addLiquidity() external onlyManagingWallets payable {\r\n        require(msg.value > 0);\r\n        emit LiquidityAdded(msg.value);\r\n    }\r\n\r\n    // allow fundWallet to remove ether from contract\r\n    function removeLiquidity(uint256 amount) external onlyManagingWallets {\r\n        require(amount <= this.balance);\r\n        etherWallet.transfer(amount);\r\n        emit RemoveLiquidity(amount);\r\n    }\r\n\r\n    function changeFundWallet(address newFundWallet) external onlyFundWallet {\r\n        require(newFundWallet != address(0));\r\n        etherWallet = newFundWallet;\r\n    }\r\n\r\n    function changeControlWallet(address newControlWallet) external onlyFundWallet {\r\n        require(newControlWallet != address(0));\r\n        controlWallet = newControlWallet;\r\n    }\r\n\r\n    function changePriceUpdateInterval(uint256 newPriceUpdateInterval) external onlyFundWallet {\r\n        priceUpdateInterval = newPriceUpdateInterval;\r\n    }\r\n\r\n    function updateFundingStartBlock(uint256 newFundingStartBlock) external onlyFundWallet {\r\n        require(block.number < fundingStartBlock);\r\n        require(block.number < newFundingStartBlock);\r\n        fundingStartBlock = newFundingStartBlock;\r\n    }\r\n\r\n    function updateFundingEndBlock(uint256 newFundingEndBlock) external onlyFundWallet {\r\n        require(block.number < fundingEndBlock);\r\n        require(block.number < newFundingEndBlock);\r\n        fundingEndBlock = newFundingEndBlock;\r\n    }\r\n\r\n    function halt() external onlyFundWallet {\r\n        halted = true;\r\n    }\r\n\r\n    function unhalt() external onlyFundWallet {\r\n        halted = false;\r\n    }\r\n\r\n    function enableTrading() external onlyFundWallet {\r\n        require(block.number > fundingEndBlock);\r\n        tradeable = true;\r\n    }\r\n\r\n    // if ether is sent this contract, then handle it\r\n    function() public payable {\r\n\t\t// TODO: why do we need this check. Consider removing it. Complier is complaining and online they say to never use origin\r\n        //require(tx.origin == msg.sender); // important to find out what this is?? maybe this is why we never got transactions?????????????\r\n        depositTo(msg.sender);\r\n    }\r\n\r\n    function claimTokens(address _token) external onlyFundWallet {\r\n        require(_token != address(0));\r\n        ERC20Interface token = ERC20Interface(_token);\r\n        uint256 balance = token.balanceOf(this);\r\n        token.transfer(etherWallet, balance);\r\n    }\r\n\r\n    // prevent transfers until trading allowed\r\n    function transfer(address _to, uint256 _value) public isTradeable returns (bool success) {\r\n        return super.transfer(_to, _value);\r\n    }\r\n\r\n    function transferFrom(address _from, address _to, uint256 _value) public isTradeable returns (bool success) {\r\n        return super.transferFrom(_from, _to, _value);\r\n    }\r\n\t\r\n\r\n\r\n    // I added these, remove them\r\n    function isInWhitelist(address participant) external constant returns (bool) {\r\n        return whitelist[participant];\r\n    }\r\n\r\n    function getContractBalance() public constant returns (uint256) {\r\n        return this.balance;\r\n    }\r\n\r\n    function getEtherWalletBalance() public constant returns (uint256) {\r\n        return etherWallet.balance;\r\n    }\r\n\r\n    function getVestingContractBalance() public constant returns (uint256) {\r\n        return balances[vestingContract];\r\n    }\r\n\r\n    function pendingWithdrawalRequestOf(address participant) constant returns (uint256 tokens) {\r\n        return withdrawalRequests[participant].nummberOfTokens;\r\n    }\r\n\r\n}",
  "sourcePath": "C:\\Users\\fikre\\Desktop\\DX25 dev\\Isonex\\contracts\\IsonexTest.sol",
  "compiler": {
    "name": "solc",
    "version": "0.4.21+commit.dfe3193c.Emscripten.clang"
  },
  "schemaVersion": "2.0.0",
  "updatedAt": "2018-04-30T20:18:56.979Z"
}