{
  "contractName": "TokenValault",
  "abi": [
    {
      "constant": true,
      "inputs": [],
      "name": "IsonexContract",
      "outputs": [
        {
          "name": "",
          "type": "address"
        }
      ],
      "payable": false,
      "stateMutability": "view",
      "type": "function"
    },
    {
      "constant": true,
      "inputs": [],
      "name": "secondRelease",
      "outputs": [
        {
          "name": "",
          "type": "uint256"
        }
      ],
      "payable": false,
      "stateMutability": "view",
      "type": "function"
    },
    {
      "constant": true,
      "inputs": [],
      "name": "fundingEndBlock",
      "outputs": [
        {
          "name": "",
          "type": "uint256"
        }
      ],
      "payable": false,
      "stateMutability": "view",
      "type": "function"
    },
    {
      "constant": true,
      "inputs": [],
      "name": "thirdRelease",
      "outputs": [
        {
          "name": "",
          "type": "uint256"
        }
      ],
      "payable": false,
      "stateMutability": "view",
      "type": "function"
    },
    {
      "constant": true,
      "inputs": [],
      "name": "fourthRelease",
      "outputs": [
        {
          "name": "",
          "type": "uint256"
        }
      ],
      "payable": false,
      "stateMutability": "view",
      "type": "function"
    },
    {
      "constant": true,
      "inputs": [],
      "name": "stage",
      "outputs": [
        {
          "name": "",
          "type": "uint8"
        }
      ],
      "payable": false,
      "stateMutability": "view",
      "type": "function"
    },
    {
      "constant": true,
      "inputs": [],
      "name": "firstRelease",
      "outputs": [
        {
          "name": "",
          "type": "uint256"
        }
      ],
      "payable": false,
      "stateMutability": "view",
      "type": "function"
    },
    {
      "inputs": [
        {
          "name": "_contractAddress",
          "type": "address"
        },
        {
          "name": "fundingEndBlockInput",
          "type": "uint256"
        }
      ],
      "payable": false,
      "stateMutability": "nonpayable",
      "type": "constructor"
    },
    {
      "constant": false,
      "inputs": [
        {
          "name": "newBeneficiary",
          "type": "address"
        }
      ],
      "name": "changeBeneficiary",
      "outputs": [],
      "payable": false,
      "stateMutability": "nonpayable",
      "type": "function"
    },
    {
      "constant": false,
      "inputs": [
        {
          "name": "newFundingEndBlock",
          "type": "uint256"
        }
      ],
      "name": "updateFundingEndBlock",
      "outputs": [],
      "payable": false,
      "stateMutability": "nonpayable",
      "type": "function"
    },
    {
      "constant": true,
      "inputs": [],
      "name": "checkBalance",
      "outputs": [
        {
          "name": "tokenBalance",
          "type": "uint256"
        }
      ],
      "payable": false,
      "stateMutability": "view",
      "type": "function"
    },
    {
      "constant": false,
      "inputs": [],
      "name": "claim",
      "outputs": [],
      "payable": false,
      "stateMutability": "nonpayable",
      "type": "function"
    },
    {
      "constant": false,
      "inputs": [
        {
          "name": "_token",
          "type": "address"
        }
      ],
      "name": "claimOtherTokens",
      "outputs": [],
      "payable": false,
      "stateMutability": "nonpayable",
      "type": "function"
    }
  ],
  "bytecode": "0x60606040526000600360006101000a81548160ff0219169083151502179055506000600860006101000a81548160ff0219169083600481111561003e57fe5b0217905550341561004e57600080fd5b604051604080610cdc83398101604052808051906020019091908051906020019091905050600073ffffffffffffffffffffffffffffffffffffffff168273ffffffffffffffffffffffffffffffffffffffff16141515156100af57600080fd5b816000806101000a81548173ffffffffffffffffffffffffffffffffffffffff021916908373ffffffffffffffffffffffffffffffffffffffff16021790555033600160006101000a81548173ffffffffffffffffffffffffffffffffffffffff021916908373ffffffffffffffffffffffffffffffffffffffff160217905550806002819055505050610b94806101486000396000f3006060604052600436106100ba576000357c0100000000000000000000000000000000000000000000000000000000900463ffffffff168063405a66da146100bf5780634b64fe66146100f85780634e71d92d1461014d578063695ec7931461016257806391b43d131461018b578063a777deca146101b4578063b73f1e52146101dd578063c040e6b814610206578063c71daccb1461023d578063da5db74814610266578063dc0706571461028f578063e28b0d9a146102c8575b600080fd5b34156100ca57600080fd5b6100f6600480803573ffffffffffffffffffffffffffffffffffffffff169060200190919050506102eb565b005b341561010357600080fd5b61010b610579565b604051808273ffffffffffffffffffffffffffffffffffffffff1673ffffffffffffffffffffffffffffffffffffffff16815260200191505060405180910390f35b341561015857600080fd5b61016061059e565b005b341561016d57600080fd5b6101756106ec565b6040518082815260200191505060405180910390f35b341561019657600080fd5b61019e6106f2565b6040518082815260200191505060405180910390f35b34156101bf57600080fd5b6101c76106f8565b6040518082815260200191505060405180910390f35b34156101e857600080fd5b6101f06106fe565b6040518082815260200191505060405180910390f35b341561021157600080fd5b610219610704565b6040518082600481111561022957fe5b60ff16815260200191505060405180910390f35b341561024857600080fd5b610250610717565b6040518082815260200191505060405180910390f35b341561027157600080fd5b6102796107f0565b6040518082815260200191505060405180910390f35b341561029a57600080fd5b6102c6600480803573ffffffffffffffffffffffffffffffffffffffff169060200190919050506107f6565b005b34156102d357600080fd5b6102e960048080359060200190919050506108d2565b005b600080600160009054906101000a900473ffffffffffffffffffffffffffffffffffffffff1673ffffffffffffffffffffffffffffffffffffffff163373ffffffffffffffffffffffffffffffffffffffff1614151561034a57600080fd5b600073ffffffffffffffffffffffffffffffffffffffff168373ffffffffffffffffffffffffffffffffffffffff161415151561038657600080fd5b8291506000809054906101000a900473ffffffffffffffffffffffffffffffffffffffff1673ffffffffffffffffffffffffffffffffffffffff168273ffffffffffffffffffffffffffffffffffffffff16141515156103e557600080fd5b8173ffffffffffffffffffffffffffffffffffffffff166370a08231306040518263ffffffff167c0100000000000000000000000000000000000000000000000000000000028152600401808273ffffffffffffffffffffffffffffffffffffffff1673ffffffffffffffffffffffffffffffffffffffff168152602001915050602060405180830381600087803b151561047f57600080fd5b5af1151561048c57600080fd5b5050506040518051905090508173ffffffffffffffffffffffffffffffffffffffff1663a9059cbb600160009054906101000a900473ffffffffffffffffffffffffffffffffffffffff16836040518363ffffffff167c0100000000000000000000000000000000000000000000000000000000028152600401808373ffffffffffffffffffffffffffffffffffffffff1673ffffffffffffffffffffffffffffffffffffffff16815260200182815260200192505050602060405180830381600087803b151561055c57600080fd5b5af1151561056957600080fd5b5050506040518051905050505050565b6000809054906101000a900473ffffffffffffffffffffffffffffffffffffffff1681565b6000600160009054906101000a900473ffffffffffffffffffffffffffffffffffffffff1673ffffffffffffffffffffffffffffffffffffffff163373ffffffffffffffffffffffffffffffffffffffff161415156105fc57600080fd5b6002544311151561060c57600080fd5b6000809054906101000a900473ffffffffffffffffffffffffffffffffffffffff1673ffffffffffffffffffffffffffffffffffffffff166370a08231306040518263ffffffff167c0100000000000000000000000000000000000000000000000000000000028152600401808273ffffffffffffffffffffffffffffffffffffffff1673ffffffffffffffffffffffffffffffffffffffff168152602001915050602060405180830381600087803b15156106c757600080fd5b5af115156106d457600080fd5b5050506040518051905090506106e981610956565b50565b60055481565b60025481565b60065481565b60075481565b600860009054906101000a900460ff1681565b60008060009054906101000a900473ffffffffffffffffffffffffffffffffffffffff1673ffffffffffffffffffffffffffffffffffffffff166370a08231306040518263ffffffff167c0100000000000000000000000000000000000000000000000000000000028152600401808273ffffffffffffffffffffffffffffffffffffffff1673ffffffffffffffffffffffffffffffffffffffff168152602001915050602060405180830381600087803b15156107d457600080fd5b5af115156107e157600080fd5b50505060405180519050905090565b60045481565b600073ffffffffffffffffffffffffffffffffffffffff168173ffffffffffffffffffffffffffffffffffffffff161415151561083257600080fd5b600160009054906101000a900473ffffffffffffffffffffffffffffffffffffffff1673ffffffffffffffffffffffffffffffffffffffff163373ffffffffffffffffffffffffffffffffffffffff1614151561088e57600080fd5b80600160006101000a81548173ffffffffffffffffffffffffffffffffffffffff021916908373ffffffffffffffffffffffffffffffffffffffff16021790555050565b600160009054906101000a900473ffffffffffffffffffffffffffffffffffffffff1673ffffffffffffffffffffffffffffffffffffffff163373ffffffffffffffffffffffffffffffffffffffff1614151561092e57600080fd5b6002544310151561093e57600080fd5b804310151561094c57600080fd5b8060028190555050565b60008080600481111561096557fe5b600860009054906101000a900460ff16600481111561098057fe5b1415610ae35762eff100420160048190555062eff1006004540160058190555062eff1006005540160068190555062eff1006006540160078190555064174876e8006109d184640c897b1a76610ae8565b8115156109da57fe5b0491506000809054906101000a900473ffffffffffffffffffffffffffffffffffffffff1673ffffffffffffffffffffffffffffffffffffffff1663a9059cbb600160009054906101000a900473ffffffffffffffffffffffffffffffffffffffff16846040518363ffffffff167c0100000000000000000000000000000000000000000000000000000000028152600401808373ffffffffffffffffffffffffffffffffffffffff1673ffffffffffffffffffffffffffffffffffffffff16815260200182815260200192505050602060405180830381600087803b1515610ac257600080fd5b5af11515610acf57600080fd5b5050506040518051905050610ae2610b1b565b5b505050565b60008082840290506000841480610b095750828482811515610b0657fe5b04145b1515610b1157fe5b8091505092915050565b6001600860009054906101000a900460ff166004811115610b3857fe5b016004811115610b4457fe5b600860006101000a81548160ff02191690836004811115610b6157fe5b02179055505600a165627a7a7230582034649aadc87f21d6a2f1268ebac71020e836488e074cc17c9a0515dbd942d72e0029",
  "source": "pragma solidity ^0.4.20;\r\n\r\nimport \"./ERC20Interface.sol\";\r\n\r\ncontract TokenValault {\r\n\r\n    ERC20Interface public IsonexContract;\r\n    address beneficiary;\r\n    uint256 public fundingEndBlock;\r\n\r\n\r\n    bool private initClaim = false; // state tracking variables\r\n\r\n    uint256 public firstRelease; // vesting times\r\n    uint256 public secondRelease;\r\n    uint256 public thirdRelease;\r\n    uint256 public fourthRelease;\r\n\r\n    modifier atStage(Stages _stage) {\r\n        if(stage == _stage) _;\r\n    }\r\n\r\n    Stages public stage = Stages.initClaim;\r\n\r\n    enum Stages {\r\n        initClaim,\r\n        firstRelease,\r\n        secondRelease,\r\n        thirdRelease,\r\n        fourthRelease\r\n    }\r\n\r\n    function TokenValault(address _contractAddress, uint256 fundingEndBlockInput) public {\r\n        require(_contractAddress != address(0));\r\n        IsonexContract = ERC20Interface(_contractAddress);\r\n        beneficiary = msg.sender;\r\n        fundingEndBlock = fundingEndBlockInput;\r\n    }\r\n\r\n    function changeBeneficiary(address newBeneficiary) external {\r\n        require(newBeneficiary != address(0));\r\n        require(msg.sender == beneficiary);\r\n        beneficiary = newBeneficiary;\r\n    }\r\n\r\n    function updateFundingEndBlock(uint256 newFundingEndBlock) external {\r\n        require(msg.sender == beneficiary);\r\n        require(block.number < fundingEndBlock);\r\n        require(block.number < newFundingEndBlock);\r\n        fundingEndBlock = newFundingEndBlock;\r\n    }\r\n\r\n    function checkBalance() public constant returns (uint256 tokenBalance) {\r\n        return IsonexContract.balanceOf(this);\r\n    }\r\n\r\n    function claim() external {\r\n        require(msg.sender == beneficiary);\r\n        require(block.number > fundingEndBlock);\r\n        uint256 balance = IsonexContract.balanceOf(this);\r\n        // in reverse order so stages changes don't carry within one claim\r\n        //fourth_release(balance);\r\n        //third_release(balance);\r\n        //second_release(balance);\r\n        //first_release(balance);\r\n        init_claim(balance);\r\n    }\r\n\r\n    function nextStage() private {\r\n        stage = Stages(uint256(stage) + 1);\r\n    }\r\n\r\n    function init_claim(uint256 balance) private atStage(Stages.initClaim) {\r\n        firstRelease = now + 26 weeks; // assign 4 claiming times\r\n        secondRelease = firstRelease + 26 weeks;\r\n        thirdRelease = secondRelease + 26 weeks;\r\n        fourthRelease = thirdRelease + 26 weeks;\r\n        uint256 amountToTransfer = safeMul(balance, 53846153846) / 100000000000;\r\n        IsonexContract.transfer(beneficiary, amountToTransfer); // now 46.153846154% tokens left\r\n        nextStage();\r\n    }\r\n\r\n    function first_release(uint256 balance) private atStage(Stages.firstRelease) {\r\n        require(now > firstRelease);\r\n        uint256 amountToTransfer = balance / 4;\r\n        IsonexContract.transfer(beneficiary, amountToTransfer); // send 25 % of team releases\r\n        nextStage();\r\n    }\r\n\r\n    function second_release(uint256 balance) private atStage(Stages.secondRelease) {\r\n        require(now > secondRelease);\r\n        uint256 amountToTransfer = balance / 3;\r\n        IsonexContract.transfer(beneficiary, amountToTransfer); // send 25 % of team releases\r\n        nextStage();\r\n    }\r\n\r\n    function third_release(uint256 balance) private atStage(Stages.thirdRelease) {\r\n        require(now > thirdRelease);\r\n        uint256 amountToTransfer = balance / 2;\r\n        IsonexContract.transfer(beneficiary, amountToTransfer); // send 25 % of team releases\r\n        nextStage();\r\n    }\r\n    \r\n    function fourth_release(uint256 balance) private atStage(Stages.fourthRelease) {\r\n        require(now > fourthRelease);\r\n        IsonexContract.transfer(beneficiary, balance); // send remaining 25 % of team releases\r\n    }\r\n\r\n    function claimOtherTokens(address _token) external {\r\n        require(msg.sender == beneficiary);\r\n        require(_token != address(0));\r\n        ERC20Interface token = ERC20Interface(_token);\r\n        require(token != IsonexContract);\r\n        uint256 balance = token.balanceOf(this);\r\n        token.transfer(beneficiary, balance);\r\n    }\r\n\r\n    function safeMul(uint a, uint b) pure internal returns (uint) {\r\n        uint c = a * b;\r\n        assert(a == 0 || c / a == b);\r\n        return c;\r\n    }\r\n}",
  "sourcePath": "C:\\Users\\fikre\\Desktop\\DX25 dev\\Isonex\\contracts\\TokenVault.sol",
  "compiler": {
    "name": "solc",
    "version": "0.4.21+commit.dfe3193c.Emscripten.clang"
  },
  "schemaVersion": "2.0.0",
  "updatedAt": "2018-05-05T12:27:13.686Z"
}