{
  "contractName": "TokenValault",
  "abi": [
    {
      "constant": true,
      "inputs": [],
      "name": "Contract",
      "outputs": [
        {
          "name": "",
          "type": "address"
        }
      ],
      "payable": false,
      "stateMutability": "view",
      "type": "function"
    },
    {
      "constant": true,
      "inputs": [],
      "name": "stage",
      "outputs": [
        {
          "name": "",
          "type": "uint8"
        }
      ],
      "payable": false,
      "stateMutability": "view",
      "type": "function"
    },
    {
      "inputs": [
        {
          "name": "_contractAddress",
          "type": "address"
        }
      ],
      "payable": false,
      "stateMutability": "nonpayable",
      "type": "constructor"
    },
    {
      "constant": true,
      "inputs": [],
      "name": "checkBalance",
      "outputs": [
        {
          "name": "tokenBalance",
          "type": "uint256"
        }
      ],
      "payable": false,
      "stateMutability": "view",
      "type": "function"
    },
    {
      "constant": false,
      "inputs": [],
      "name": "claim",
      "outputs": [],
      "payable": false,
      "stateMutability": "nonpayable",
      "type": "function"
    }
  ],
  "bytecode": "0x60606040526000600160146101000a81548160ff0219169083600481111561002357fe5b0217905550341561003357600080fd5b60405160208061064f83398101604052808051906020019091905050600073ffffffffffffffffffffffffffffffffffffffff168173ffffffffffffffffffffffffffffffffffffffff161415151561008b57600080fd5b806000806101000a81548173ffffffffffffffffffffffffffffffffffffffff021916908373ffffffffffffffffffffffffffffffffffffffff16021790555033600160006101000a81548173ffffffffffffffffffffffffffffffffffffffff021916908373ffffffffffffffffffffffffffffffffffffffff160217905550506105338061011c6000396000f300606060405260043610610062576000357c0100000000000000000000000000000000000000000000000000000000900463ffffffff1680634e71d92d146100675780635af77fff1461007c578063c040e6b8146100d1578063c71daccb14610108575b600080fd5b341561007257600080fd5b61007a610131565b005b341561008757600080fd5b61008f61026f565b604051808273ffffffffffffffffffffffffffffffffffffffff1673ffffffffffffffffffffffffffffffffffffffff16815260200191505060405180910390f35b34156100dc57600080fd5b6100e4610294565b604051808260048111156100f457fe5b60ff16815260200191505060405180910390f35b341561011357600080fd5b61011b6102a7565b6040518082815260200191505060405180910390f35b6000600160009054906101000a900473ffffffffffffffffffffffffffffffffffffffff1673ffffffffffffffffffffffffffffffffffffffff163373ffffffffffffffffffffffffffffffffffffffff1614151561018f57600080fd5b6000809054906101000a900473ffffffffffffffffffffffffffffffffffffffff1673ffffffffffffffffffffffffffffffffffffffff166370a08231306040518263ffffffff167c0100000000000000000000000000000000000000000000000000000000028152600401808273ffffffffffffffffffffffffffffffffffffffff1673ffffffffffffffffffffffffffffffffffffffff168152602001915050602060405180830381600087803b151561024a57600080fd5b5af1151561025757600080fd5b50505060405180519050905061026c81610380565b50565b6000809054906101000a900473ffffffffffffffffffffffffffffffffffffffff1681565b600160149054906101000a900460ff1681565b60008060009054906101000a900473ffffffffffffffffffffffffffffffffffffffff1673ffffffffffffffffffffffffffffffffffffffff166370a08231306040518263ffffffff167c0100000000000000000000000000000000000000000000000000000000028152600401808273ffffffffffffffffffffffffffffffffffffffff1673ffffffffffffffffffffffffffffffffffffffff168152602001915050602060405180830381600087803b151561036457600080fd5b5af1151561037157600080fd5b50505060405180519050905090565b60008080600481111561038f57fe5b600160149054906101000a900460ff1660048111156103aa57fe5b14156104cf5764174876e8006103c584640c897b1a766104d4565b8115156103ce57fe5b0491506000809054906101000a900473ffffffffffffffffffffffffffffffffffffffff1673ffffffffffffffffffffffffffffffffffffffff1663a9059cbb600160009054906101000a900473ffffffffffffffffffffffffffffffffffffffff16846040518363ffffffff167c0100000000000000000000000000000000000000000000000000000000028152600401808373ffffffffffffffffffffffffffffffffffffffff1673ffffffffffffffffffffffffffffffffffffffff16815260200182815260200192505050602060405180830381600087803b15156104b657600080fd5b5af115156104c357600080fd5b50505060405180519050505b505050565b600080828402905060008414806104f557508284828115156104f257fe5b04145b15156104fd57fe5b80915050929150505600a165627a7a72305820ee080cc6d1a923f04e12feddf4c6d8927ff707ade621f8f8466737aa36b57ad70029",
  "source": "pragma solidity ^0.4.20;\r\n\r\nimport \"./ERC20Interface.sol\";\r\n\r\ncontract TokenValault {\r\n\r\n    ERC20Interface public Contract;\r\n    address beneficiary;\r\n\r\n    modifier atStage(Stages _stage) {\r\n        if(stage == _stage) _;\r\n    }\r\n\r\n    Stages public stage = Stages.initClaim;\r\n\r\n    enum Stages {\r\n        initClaim,\r\n        firstRelease,\r\n        secondRelease,\r\n        thirdRelease,\r\n        fourthRelease\r\n    }\r\n\r\n    function TokenValault(address _contractAddress) public {\r\n        require(_contractAddress != address(0));\r\n        Contract = ERC20Interface(_contractAddress); // what is this doing??????????????/\r\n        beneficiary = msg.sender;\r\n    }\r\n\r\n    function checkBalance() public constant returns (uint256 tokenBalance) {\r\n        return Contract.balanceOf(this);\r\n    }\r\n\r\n    function claim() external {\r\n        require(msg.sender == beneficiary);\r\n        //require(block.number > fundingEndBlock);\r\n        uint256 balance = Contract.balanceOf(this);\r\n        // in reverse order so stages changes don't carry within one claim\r\n        //fourth_release(balance);\r\n        //third_release(balance);\r\n        //second_release(balance);\r\n        //first_release(balance);\r\n        init_claim(balance);\r\n    }\r\n\r\n    function init_claim(uint256 balance) private atStage(Stages.initClaim) {\r\n        //firstRelease = now + 26 weeks; // assign 4 claiming times\r\n        //secondRelease = firstRelease + 26 weeks;\r\n        //thirdRelease = secondRelease + 26 weeks;\r\n        //fourthRelease = thirdRelease + 26 weeks;\r\n        uint256 amountToTransfer = safeMul(balance, 53846153846) / 100000000000;\r\n        Contract.transfer(beneficiary, amountToTransfer); // now 46.153846154% tokens left\r\n        //nextStage();\r\n    }\r\n\r\n    function safeMul(uint a, uint b) internal returns (uint) {\r\n        uint c = a * b;\r\n        assert(a == 0 || c / a == b);\r\n        return c;\r\n    }\r\n}",
  "sourcePath": "C:\\Users\\fikre\\Desktop\\DX25 dev\\Isonex\\contracts\\TokenVault.sol",
  "compiler": {
    "name": "solc",
    "version": "0.4.21+commit.dfe3193c.Emscripten.clang"
  },
  "schemaVersion": "2.0.0",
  "updatedAt": "2018-04-28T00:06:09.138Z"
}